:10000000AAC00000C4C00000C2C00000C0C0000000
:10001000BEC00000BCC00000BAC00000B8C00000F4
:10002000B6C00000B4C000000C94E209B0C00000EB
:10003000AEC00000ACC00000AAC00000A8C0000014
:10004000A6C00000A4C00000A2C00000A0C0000024
:100050009EC000007EC200009AC00000A3C1000044
:1000600096C0000053C1000092C0000090C0000084
:100070008EC000008CC000008AC0000088C0000054
:1000800086C0000084C0000082C0000080C0000064
:100090007EC000007CC000007AC0000078C0000074
:1000A00076C0000074C0000072C000000600FF09A6
:1000B00001A1010902150025FF75089508810209B3
:1000C00003150025FF750895089102C01201100163
:1000D000000000085423222200020102000109024C
:1000E0002200010100C0FA09040000010300000021
:1000F00009211101000122200007058103080001E8
:10010000040309042E0342006900720064004200E7
:100110007200610069006E002000540065006300F9
:1001200068006E006F006C006F006700690065007A
:10013000730000002003480075006D006D00690029
:100140006E006700620069007200640020004400D5
:1001500075006F00000011241FBECFEFDAE0DEBF94
:10016000CDBF11E0A0E0B1E0E6EFFCE102C00590F8
:100170000D92A031B107D9F713E0A0E1B1E001C0C1
:100180001D92A336B107E1F741D30C94790E38CF15
:1001900080E680937C0084E880937A0010927B0054
:1001A00083E780937E00089580937C0080917A009D
:1001B000806480937A0080917A0086FDFCCF8091E4
:1001C0007A00806180937A008091790090E00895B0
:1001D00084B1866184B985E58CBD2C9A08952C98EC
:1001E0009AE69A95F1F78EBD0DB407FEFDCF85ED29
:1001F0008A95F1F72C9A08958EEFF1CFEF92FF9246
:100200000F931F93082FF62EE42E982F9C5F862FB6
:10021000880F890FE4DF88EC90E00197F1F78E2DCD
:10022000DEDF10E0000F111FE0E1F1E0DF01A00FC1
:10023000B11FFC92FD01E1821F910F91FF90EF90A1
:1002400008958FEFCCCF0F931F93182F062FC7DF82
:1002500088EC90E00197F1F7802FC1DFE4E1F1E055
:10026000E10FF11D00831F910F91089582E08093AB
:10027000C80088E98093C90086E08093CA00109284
:100280005403109255038FEC8093CC000895982F5F
:100290008091C80085FFFCCF9093CE000895909187
:1002A00054038091550320E0981321E0822F089594
:1002B00086E67ADFECDF85E677DFE9DF84E674DF68
:1002C000E6DF81E671DFE3DF80E66EDFE0CF80917D
:1002D0005503E4E5F2E0E80FF11D808190915503AC
:1002E0009F5F909355030895909154039F5F809171
:1002F00055032091CE00981741F0E0915403F0E0AF
:10030000EC5AFD4F20839093540308951F920F924F
:100310000FB60F9211242F933F934F935F936F93D8
:100320007F938F939F93AF93BF93EF93FF93DCDF04
:10033000FF91EF91BF91AF919F918F917F916F91BD
:100340005F914F913F912F910F900FBE0F901F9093
:100350001895262F30E0803339F4309389002093AC
:10036000880060931801089530938B0020938A00D1
:1003700060931901089510928900109288001092DC
:100380008B0010928A0010921801109219010895A2
:1003900081EA8093800089E08093810084B1806647
:1003A00084B9E9CF1F920F920FB60F9211242F93A9
:1003B0003F938F939F93AF93BF93EF93FF9380915E
:1003C00031018823F9F490913201953118F090931E
:1003D0002F0102C010922F0180913301882311F464
:1003E0009F5F01C0915090933201809132018E3F06
:1003F00020F081E0809333010AC0833040F41092F2
:10040000330105C0813019F48FEF80932F0120E074
:1004100030E0F901E65EFE4FD901AB5DBE4F8C9135
:1004200080832F5F3F4F2B30310599F780911A0160
:10043000882311F0769A04C076988FEF80931A0182
:1004400080911B01882311F05C9A04C05C988FEFA7
:1004500080931B0180911C01882311F05E9A04C0D7
:100460005E988FEF80931C0180911D01882311F00D
:10047000469A04C046988FEF80931D0180911E011B
:10048000882311F05F9A04C05F988FEF80931E015C
:1004900080911F01882311F02F9A04C02F988FEFAD
:1004A00080931F0180912001882311F0589A04C085
:1004B00058988FEF8093200180912101882311F0BB
:1004C000599A04C059988FEF80932101809122019D
:1004D000882311F0729A04C072988FEF80932201E2
:1004E00080912301882311F08F9A04C08F988FEF99
:1004F0008093230180912401882331F0479A8091D1
:100500003001EAE1F1E005C047988FEF80932401C4
:10051000F6CF9081981708F4892F319691E0E53253
:10052000F907B9F78093300187BD8091350190912B
:100530003401890F80933501FF91EF91BF91AF9105
:100540009F918F913F912F910F900FBE0F901F9011
:1005500018951F920F920FB60F9211248F939F93AD
:10056000EF93FF93909130019F3F09F467C0809112
:100570001A01891721F476988FEF80931A018091E0
:100580001B01891721F45C988FEF80931B018091E8
:100590001C01891721F45E988FEF80931C018091D4
:1005A0001D01891721F446988FEF80931D018091DA
:1005B0001E01891721F45F988FEF80931E018091AF
:1005C0001F01891721F42F988FEF80931F018091CD
:1005D0002001891721F458988FEF80932001809192
:1005E0002101891721F459988FEF8093210180917F
:1005F0002201891721F472988FEF80932201809154
:100600002301891721F48F988FEF80932301809124
:100610002401891721F447988FEF80932401EAE1A0
:10062000F1E08FEF9081981708F4892F319691E0CF
:10063000E532F907B9F78093300187BDFF91EF915B
:100640009F918F910F900FBE0F901F90189514BC23
:1006500084E085BD83E080936E00279A87B1806C2B
:1006600087B98AB1836D8AB98DB184648DB9879A4F
:1006700008958093250160932601409327010895F2
:10068000809328016093290140932A0108958133C2
:1006900021F4CB01BA01A901F3CFCB01BA01A90121
:1006A000E8CF80932B01089580932C0108958093C7
:1006B0002D01089580932E010895813361F08233D6
:1006C00018F4803371F405C0823339F0833349F470
:1006D00006C0CB01E6CFCB01E7CFCB01E8CFCB0102
:1006E000E9CF089580E090E060E070E040E050E005
:1006F000C0DF80E090E060E070E040E050E0C0DF0C
:1007000080E090E0CEDF80E090E0CEDF80E090E01F
:10071000CEDF80E090E0CECF0895109231016CDD05
:10072000E1DF8FDD28CE80910E0190910F010097BF
:1007300029F0019790930F0180930E0108950F9374
:100740001F93A801EEE3F2E060933E02609349023A
:1007500000933F02528300934A0250934B02339618
:10076000CF01B9010E94690E1F910F9108950F9357
:100770001F93CF93DF93FB01C901E8012091490248
:10078000211120832CE432E040914A0250914B0227
:10079000B9010E94690E80914A0290914B0299839F
:1007A000888380E0DF91CF911F910F91089580E0C1
:1007B00091E00C94170D80E091E00E94F60CE2EEBF
:1007C000F0E0808184608083089584B7877F84BF50
:1007D00088E10FB6F89480936000109260000FBE1D
:1007E00080E090E020E80FB6F894209361008093B9
:1007F00061000FBE209A289A559A5D9A3F9A4798B1
:10080000C7DC25DFC5DDE4DCC0D530CD2F923F92BB
:100810004F925F926F927F928F929F92AF92BF9210
:10082000CF92DF92EF92FF920F931F93DF93CF93BC
:10083000CDB7DEB72E970FB6F894DEBF0FBECDBF93
:10084000C4DF789466247724AA24BB24650150E28F
:10085000E52E51EAF52E57E0052F112D9924882415
:10086000839440E4442E4FE1542E32E0232E312C69
:100870002C0E3D1ECE0104969C878B87FE0135967B
:10088000FE87ED87CE0106969A8789870AC0AA243B
:10089000BB24650120E4E22E2BE4F22E2CE4022F8F
:1008A000112D80E091E0D3D7BDD7809135018F31F4
:1008B00018F010923501FCDCAE14BF04C006D1065E
:1008C00089F4D601C5010596A11DB11D8A159B05A8
:1008D000AC05BD0588F090DC05DFB3DC4CDD109283
:1008E000310105C0AE14BF04C006D10628F4089437
:1008F000A11CB11CC11CD11CD2DC882309F494C1F9
:10090000E6DC8983823509F406C1833580F48C34B2
:1009100009F447C08D3420F4873409F0BBCF02C1FD
:100920008D3409F461C08F3409F0B4CF13C0883519
:1009300009F4EEC0893538F4833509F49CC0863556
:1009400009F0A8CF76C0833709F4B8C08A3709F018
:10095000A1CF5AC180923101810118C0C201019713
:10096000F1F793949CDC882321F49AEF9916B1F760
:1009700091CFE9EFE91508F48DCFA9DCF801819357
:100980008F0189859A85E817F90711F09924EACF34
:100990006B814C812D818A8170E050E030E077DE00
:1009A00076CF80923101810118C0C2010197F1F721
:1009B000939475DC882321F49AEF9916B1F76ACFE6
:1009C000E9EFE91508F466CF82DCF80181938F0125
:1009D0008B859C85E817F90711F09924EACF6B8184
:1009E0008A8170E06ADE53CF80923101810118C0A4
:1009F000C2010197F1F7939452DC882321F49AEF16
:100A00009916B1F747CFE9EFE91508F443CF5FDC5A
:100A1000F80181938F018D859E85E817F90711F004
:100A20009924EACF8A816B81605380534C81E6DB45
:100A30002ECF80923101810118C0C2010197F1F7D8
:100A400093942DDC882321F49AEF9916B1F722CFE5
:100A5000E9EFE91508F41ECF3ADCF80181938F0124
:100A60008B859C85E817F90711F09924EACF8A81D4
:100A70006B816FDC0CCF80923101810118C0C20103
:100A80000197F1F793940BDC882321F49AEF9916E0
:100A9000B1F700CFE9EFE91508F4FCCE18DCF80156
:100AA00081938F018B859C85E817F90711F09924B4
:100AB000EACF8A8180536B81C6DBE9CE8092310117
:100AC00004C0C2010197F1F79394E9DB882321F474
:100AD00099EF9915B0F7DECEE9EFE91508F4DACE13
:100AE000F6DB8A83803311F486E603C0813321F478
:100AF00085E65ADBCCDBCBCE823311F484E6F9CF2A
:100B0000833311F481E6F5CF843309F0C0CE61C0A0
:100B10008092310102C0109231016EDBE3DD91DB86
:100B20002ADC6DC08092310104C0C2010197F1F747
:100B30009394B5DB882321F4F9EFF915B0F7AACE29
:100B400089EF891508F4A6CEC2DB8A83803359F475
:100B500005E211E0F80181918F0199DBF1E00C329F
:100B60001F07C1F794CE8133A1F480912C018FDB54
:100B700080912D018CDB80912E0189DB04E111E055
:100B8000F80181918F0183DBF1E008311F07C1F784
:100B90007ECE823381F400E111E0F80181918F0172
:100BA00076DBF1E004311F07C1F7809118016FDB9C
:100BB000809119019FCF833371F486E6F5DA67DB04
:100BC00085E6F2DA64DB84E6EFDA61DB81E6ECDA13
:100BD0005EDB80E68ECF843351F483E058DB80E027
:100BE00056DB82E054DB81E052DB89E683CF85333C
:100BF00019F4809234014BCE863309F048CE10921E
:100C000034011092350143CE80923101862D3FDBB5
:100C10000894611C711C8FEF6816710409F00CF4C4
:100C200036CE6624772433CE80914102823509F492
:100C300066C0833570F48C3451F18D3420F48734E0
:100C400009F02FCE61C08D3449F18F3409F029CEDF
:100C500011C0883509F453C0893530F4833571F1FA
:100C6000863509F01ECE24C0833779F18A3709F022
:100C700018CEB4C0609143024091440220914502D5
:100C80008091420270E050E030E001DDB3C060913D
:100C900043028091420270E010DDACC080914202BC
:100CA000609143026053805340914402A7DAA2C08E
:100CB00080914202609143024CDB9CC080914202D1
:100CC000805360914302BFDA95C080914202803325
:100CD00011F486E610C0813311F485E60CC082332E
:100CE00011F484E608C0833311F481E604C0843330
:100CF00009F080C080E658DA80934C027BC07CDA31
:100D0000F1DC9FDA38DB76C080914202803359F4FF
:100D1000E5E2F1E0ACE4B2E081918D9391E0EC3258
:100D2000F907D1F767C08133B9F480912C01809322
:100D30004C0280912D0180934D0280912E01809371
:100D40004E02E4E1F1E0AFE4B2E081918D9381E005
:100D5000E831F807D1F74EC08233C9F48091100111
:100D600080934C028091110180934D028091120179
:100D700080934E028091130180934F02809118015D
:100D800080935002809119018093510233C08333C4
:100D9000A9F486E609DA80934C0285E605DA8093A9
:100DA0004D0284E601DA80934E0281E6FDD98093FC
:100DB0004F0280E6F9D9809350021CC08433D1F4ED
:100DC00093E090934C0210924D02E2E0E0934E02C9
:100DD00080924F02F9E6F09350020CC060924C02F0
:100DE0000894611C711C8FEF6816710419F014F0DF
:100DF0006624772480914102823519F410923101E2
:100E000002C0809231011092410280914802809389
:100E10005302AA24BB24650190E2E92E91EAF92E3F
:100E200097E0092F112D3DCDDA019330B1F09430C8
:100E300028F4913041F0923079F50AC0913211F1E5
:100E4000923251F524C0ECECF0E022E130E028C011
:100E5000EEEDF0E022E230E023C0813049F0813055
:100E600018F08230C9F40AC0E0E0F1E0849103C0D8
:100E7000E4E0F1E08491282F30E012C0E4E3F1E0F7
:100E80008491F9CFE0EFF0E029E030E009C0ECEA2E
:100E9000F0E020E230E004C0E0E0F0E020E030E00C
:100EA000ED93FC93C90108959C0140916103509119
:100EB00062034617570718F4F90190E045C0611521
:100EC000710511F0AB01F8CF8091E8008E77809327
:100ED000E80040E050E0F0CF80915A03882309F405
:100EE00045C0853009F444C08091E80083FF02C00A
:100EF00081E008958091E80082FD32C08091E80091
:100F000080FF22C08091F3009091F200782F60E082
:100F1000292F30E0262B372B07C081918093F100D9
:100F2000415050402F5F3F4F4115510519F0283077
:100F3000310598F390E02830310509F491E0809173
:100F4000E8008E778093E8004115510529F6992332
:100F500019F606C080915A03882341F0853041F08C
:100F60008091E80082FFF6CF80E0089582E0089546
:100F700083E008959C016115710529F48091E800D2
:100F80008B778093E800F90127C080915A0388236A
:100F900099F1853099F18091E80083FF02C081E0EA
:100FA00008958091E80082FFF0CF06C08091F100A3
:100FB00081936150704059F02091F3008091F200CC
:100FC000322F20E090E0822B932B892B79F78091B0
:100FD000E8008B778093E80061157105B1F606C0D3
:100FE00080915A03882341F0853041F08091E800D8
:100FF00080FFF6CF80E0089582E0089583E00895B1
:101000009C0140916103509162034617570718F401
:10101000F90190E046C06115710511F0AB01F8CF00
:101020008091E8008E778093E80040E050E0F0CFB8
:1010300080915A03882309F447C0853009F446C0DB
:101040008091E80083FF02C081E008958091E8006C
:1010500082FD34C08091E80080FF23C08091F300BE
:101060009091F200782F60E0292F30E0262B372B6B
:1010700008C084918093F1003196415050402F5F19
:101080003F4F4115510519F02830310590F390E09C
:101090002830310509F491E08091E8008E77809343
:1010A000E8004115510521F6992309F0C1CF06C08A
:1010B00080915A03882341F0853041F08091E80007
:1010C00082FFF6CF80E0089582E0089583E00895DE
:1010D000BF92CF92DF92EF92FF920F931F93CF9325
:1010E000DF93182F092F7B016A01D9D0B82E8823EE
:1010F000B1F5812F902F9C01E901C114D10439F081
:10110000F60180819181E81AF90AC80FD91F00E021
:1011100010E022C08091E80085FD16C08091E800B3
:101120008E778093E8007ED3C114D10449F0F60194
:1011300080819181800F911F9183808385E010C011
:10114000AED0882349F00CC089918093F1000894B7
:10115000E108F1080F5F1F4FE114F104D9F68B2D60
:10116000DF91CF911F910F91FF90EF90DF90CF9083
:10117000BF900895382F282F2EC0822F8F70809314
:10118000E900231721F4762F942F50E006C07091C8
:10119000EC009091ED005091F00091FF1BC0809108
:1011A000EB008E7F8093EB008091ED008D7F80932C
:1011B000ED008091EB0081608093EB007093EC0078
:1011C0009093ED005093F0008091EE0087FD02C0F7
:1011D00080E008952F5F273080F23F703093E90060
:1011E00081E008950F931F93CF93DF93062FEC01B7
:1011F00010E02AC09881992329F16B81E981FA8155
:101200002C81892F8F70873018F5223010F452E02E
:1012100001C056E040E028E030E003C04F5F220FFD
:10122000331F2E173F07D0F36295660F660F607C61
:10123000991F9927991F692B4295407F452B9ADF6B
:10124000882331F01F5F25961017A0F281E001C0BE
:1012500080E0DF91CF911F910F91089580915B0302
:1012600088239CF404C080915A038823B9F08091AC
:10127000E80082FFF8CF8091E8008B778093E80048
:10128000089580915A03882349F08091E80080FFF7
:10129000F8CF8091E8008E778093E8000895409120
:1012A000E4005091E50024E68091EC0080FF24C02A
:1012B0008091E80080FD1EC080915A03882311F4BC
:1012C00082E00895853011F483E008958091EB0069
:1012D00085FF02C081E008958091E4009091E500CF
:1012E0008417950709F3222311F484E0089521500F
:1012F000AC01DACF80E008958091E80082FFDCCF76
:10130000F9CFEF92FF920F931F934FD056D008ED75
:1013100010E0F80180818F778083808180688083EE
:1013200080818F7D808319BC10925A0310925603DE
:10133000109258031092570380EEE82EF12CF7011B
:1013400080818B7F8083F80180818160808380E051
:1013500060E042E00FDFE1EEF0E080818E7F80838D
:10136000E2EEF0E08081816080838081886080830C
:10137000F70180818E7F8083F80180818061808386
:101380001F910F91FF90EF900895E8EDF0E08081BC
:101390008F7E8083E7EDF0E080818160808384E050
:1013A00082BF81E080935903ACCFE8EDF0E080810B
:1013B0008E7F80831092E20008951092DA001092DE
:1013C000E10008951F920F920FB60F9211242F93F0
:1013D0003F934F935F936F937F938F939F93AF93BD
:1013E000BF93EF93FF938091E10082FF0AC0809149
:1013F000E20082FF06C08091E1008B7F8093E100D4
:1014000092D98091DA0080FF1DC08091D80080FFC2
:1014100019C08091DA008E7F8093DA008091D90024
:1014200080FF0CC080E189BD82E189BD09B400FE66
:10143000FDCF81E080935A036FD904C019BC10928C
:101440005A036BD98091E10080FF18C08091E200BF
:1014500080FF14C08091E2008E7F8093E200809133
:10146000E20080618093E2008091D80080628093E6
:10147000D80019BC85E080935A03D3D18091E10054
:1014800084FF2FC08091E20084FF2BC080E189BDE2
:1014900082E189BD09B400FEFDCF8091D8008F7D27
:1014A0008093D8008091E1008F7E8093E10080914D
:1014B000E2008F7E8093E2008091E2008160809361
:1014C000E20080915603882311F084E007C08091E8
:1014D000E30087FD02C081E001C083E080935A03EE
:1014E000A0D18091E10083FF22C08091E20083FFC0
:1014F0001EC08091E100877F8093E10082E08093AD
:101500005A03109256038091E1008E7F8093E10090
:101510008091E2008E7F8093E2008091E200806102
:101520008093E20080E060E042E024DE7AD1FF9127
:10153000EF91BF91AF919F918F917F916F915F914B
:101540004F913F912F910F900FBE0F901F901895C4
:101550001F93DF93CF93CDB7DEB7AC970FB6F89458
:10156000DEBF0FBECDBFEBE5F3E08091F1008193CC
:1015700023E0E336F207C9F71AD98091E80083FF28
:1015800038C180915B0330915C03353009F487C02A
:10159000363040F43130C9F1313070F0333009F079
:1015A00028C133C0383009F4F5C0393009F404C11A
:1015B000363009F01EC196C0803821F0823809F01B
:1015C00018C108C09091570380915803882399F05F
:1015D000926011C080915F038F708093E9008091C9
:1015E000EB0090E025E0969587952A95E1F7982FF6
:1015F00091701092E9008091E800877F8093E80065
:101600009093F1001092F100D0C0882319F082303D
:1016100009F0EFC090E08F719070009721F0029771
:1016200009F0E7C00CC080915D03813009F0E1C092
:1016300010925803333069F5809358032AC0809183
:101640005D03882331F520915F032F7009F4D1C029
:101650002093E9008091EB0080FF1BC0333021F420
:101660008091EB00806213C08091EB0080618093D9
:10167000EB0081E090E002C0880F991F2A95E2F705
:101680008093EA001092EA008091EB0088608093DA
:10169000EB001092E9008091E800877F89C08823E1
:1016A00009F0A7C010915D031F778091E300807857
:1016B000812B8093E3008091E800877F8093E8008E
:1016C000CDDD8091E80080FFFCCF8091E300806851
:1016D0008093E300112311F482E001C083E0809342
:1016E0005A0387C08058823008F083C080915D0320
:1016F00090915E0323E08C3D920709F033C083E0B4
:101700008C838AE28B837FB7F894DE0115966EE0B6
:1017100040E050E011E2E62FF0E010935700849192
:1017200040FF03C082958F706F5F8F70282F30E06D
:101730008A3018F0C901C79602C0C901C0968D93BE
:101740009D934F5F5F4F4431510529F77FBF8091D3
:10175000E800877F8093E800CE0103966AE270E09C
:10176000A3DB12C060915F03AE014F5F5F4F5CDB94
:10177000BC01009709F43DC08091E800877F809309
:10178000E80089819A813CDC8091E8008B77809326
:10179000E8002FC0803869F58091E800877F80934A
:1017A000E800809156038093F1008091E8008E77E5
:1017B0008093E80053DD1DC08823D9F490915D0328
:1017C0009230B8F48091E800877F8093E80090938E
:1017D000560344DD80915603882331F48091E30061
:1017E00087FD02C081E001C084E080935A030E941B
:1017F000DB038091E80083FF0AC08091E800877FC7
:101800008093E8008091EB0080628093EB00AC96BF
:101810000FB6F894DEBF0FBECDBFCF91DF911F9101
:10182000089508951F9380915A03882371F01091B1
:10183000E9008091EC001092E9008091E80083FFBC
:1018400001C086DE1F701093E9001F9108954F922A
:101850005F926F927F928F929F92AF92BF92CF9240
:10186000DF92EF92FF920F931F93DF93CF9300D0FD
:101870000F92CDB7DEB77C016DB67EB680915A036C
:10188000843009F09AC02091E4003091E500F7011E
:10189000828593858217930709F48FC081818F70A9
:1018A0008093E9008091E80085FF87C05DB64EB661
:1018B000408550E08DB79EB7841B950B0FB6F8940A
:1018C0009EBF0FBE8DBF0DB71EB70F5F1F4F198292
:1018D0001B821A82C02E912EC80160E070E050E099
:1018E00001D2C701BE016F5F7F4F40E098018E01BA
:1018F0000E5F1F4F0E94B703882EF70184859585E0
:10190000892B19F4AA24BB240BC020E0F70186859B
:101910009785892B09F021E081E02827A22EBB249E
:10192000F701068117810115110511F4DD2412C09C
:101930004A815B818C2D992DB801BED1DD240097A1
:1019400011F0DD24D394F7014085C8016C2D792D69
:1019500050E0BFD18A819B81892B01F1882021F43D
:10196000DD2011F4AB28D1F0F701848595859787A8
:10197000868781818F708093E9008981882311F0A7
:101980008093F1006A817B818C2D992D40E050E09D
:101990009FDB8091E8008E778093E8008091E400DF
:1019A0009091E500F70193878287252D342DC90199
:1019B0000FB6F8949EBF0FBE8DBF0FB6F8947EBED3
:1019C0000FBE6DBE0F900F900F90CF91DF911F91C2
:1019D0000F91FF90EF90DF90CF90BF90AF909F90CE
:1019E0008F907F906F905F904F900895CF93DF938B
:1019F000DC010996FC0187E0EF0119928A95E9F76D
:101A000081E019968C93199784EF91E01D969C9331
:101A10008E931C9783E014968C931497CD010196B6
:101A200061E0E0DB811181E0DF91CF9108956F9259
:101A30007F928F929F92AF92BF92CF92DF92EF925E
:101A4000FF920F931F93DF93CF9300D00F92CDB7E8
:101A5000DEB76C016DB67EB68091E80083FF15C1DC
:101A6000F601808190E020915F0330916003281798
:101A7000390709F00AC180915C03833009F4ADC0D5
:101A8000843030F4813071F0823009F0FEC0E1C062
:101A90008A3009F4C6C08B3009F4B0C0893009F02F
:101AA000F4C057C080915B03813A09F0EEC09DB647
:101AB0008EB61B821A8280915D0310915E0389832A
:101AC000F601408550E08DB79EB7841B950B0FB68D
:101AD000F8949EBF0FBE8DBFEDB6FEB60894E11C14
:101AE000F11CBE2CAF2CC70160E070E050E0FAD0D2
:101AF0001150C601BE016F5F7F4F412F97018E01CC
:101B00000E5F1F4F0E94B703F60126813781211512
:101B1000310529F04085C901B70150E0DAD01092B3
:101B2000E9008091E800877F8093E8006A817B81EB
:101B30008B2D9A2DB9D98091E8008B778093E8009E
:101B4000292D382DC9010FB6F8949EBF0FBE8DBF49
:101B50009CC080915B03813209F097C09DB68EB620
:101B60000091610310916203A0905D03B0905E0349
:101B70008DB79EB7801B910B0FB6F8949EBF0FBE1A
:101B80008DBFEDB6FEB60894E11CF11C8091E80013
:101B9000877F8093E800C701B801ECD98091E80005
:101BA0008E778093E80080E090E0AA2011F081E039
:101BB00090E0BA94E80EF91E081B190BC6016A2DB5
:101BC0004B2D97010E949F03892D982D9C010FB6E4
:101BD000F8943EBF0FBE2DBF58C080915B03813A81
:101BE00009F053C08091E800877F8093E8008091DE
:101BF000E80080FFFCCFF60181853FC080915B0348
:101C0000813209F042C08091E800877F8093E8002C
:101C100025DB90E080915D03811191E0F6019187D1
:101C200034C080915B03813281F58091E800877F29
:101C30008093E80013DB80915D0390915E038070D8
:101C400036E0969587953A95E1F7F6019587848772
:101C50001CC080915B03813AC1F48091E800877FCA
:101C60008093E8008091E80080FFFCCFF601848536
:101C7000958596958795969587958093F1008091A7
:101C8000E8008E778093E800E9DA0FB6F8947EBE1C
:101C90000FBE6DBE0F900F900F90CF91DF911F91EF
:101CA0000F91FF90EF90DF90CF90BF90AF909F90FB
:101CB0008F907F906F900895FB01DC0104C08D919F
:101CC0000190801921F441505040C8F7881B990BAE
:101CD0000895FB01DC0102C001900D92415050407B
:101CE000D8F70895DC0101C06D9341505040E0F7F2
:061CF0000895F894FFCFF7
:101CF6000081080000013601080000000000000015
:00000001FF
