:1000000055C000006EC000006CC000006AC0000057
:1000100068C0000066C0000064C0000062C000004C
:1000200060C000005EC00000CCC300005AC00000E9
:1000300058C0000056C0000054C0000052C000006C
:1000400050C000004EC000004CC000004AC000007C
:1000500048C00000A2C1000044C00000CEC00000A3
:1000600040C0000090C000003CC000003AC000004A
:1000700038C0000036C0000034C0000032C00000AC
:1000800030C000002EC000002CC000002AC00000BC
:1000900028C0000026C0000024C0000022C00000CC
:1000A00020C000001EC000001CC0000011241FBEA4
:1000B000CFEFDAE0DEBFCDBF11E0A0E0B1E0E4E5D4
:1000C000F9E002C005900D92A030B107D9F723E006
:1000D000A0E0B1E001C01D92A733B207E1F723D23F
:1000E00037C48ECF80E680937C0084E880937A00CA
:1000F00010927B0083E780937E00089584B186612F
:1001000084B985E58CBD2C9A089582E08093C8005F
:1001100088E98093C90086E08093CA001092280382
:10012000109229038FEC8093CC0008959091C80021
:1001300095FFFCCF8093CE000895209128039091E5
:10014000290381E0291301C080E00895A9E2B3E00A
:10015000EC91F0E0E85DFD4F80819C919F5F9C9366
:100160000895809128038F5F209129039091CE00FC
:10017000821741F0E0912803F0E0E85DFD4F9083A5
:100180008093280308951F920F920FB60F921124A7
:100190002F933F934F935F936F937F938F939F938F
:1001A000AF93BF93EF93FF93DCDFFF91EF91BF918C
:1001B000AF919F918F917F916F915F914F913F91FF
:1001C0002F910F900FBE0F901F90189510928900DD
:1001D0001092880010928B0010928A00ECE1F1E0FE
:1001E00010821182089581EA8093800089E08093D3
:1001F000810084B1806684B9E9CF1F920F920FB657
:100200000F9211248F939F93AF93BF93CF93DF935C
:10021000EF93FF9380910401811124C08091030129
:10022000853118F08093100102C010921001909156
:100230000201911102C08F5F01C0815080930301C0
:10024000809103018E3F20F081E08093020104C081
:10025000833010F410920201A6E0B1E0E1E1F1E098
:10026000EF0106C08130C1F78FEF80931001F4CF0A
:100270008D91899381E0A131B807D1F78091110167
:10028000882311F0769A04C076988FEF809311013D
:1002900080911201882311F05C9A04C05C988FEF62
:1002A0008093120180911301882311F05E9A04C09B
:1002B0005E988FEF8093130180911401882311F0D1
:1002C000469A04C046988FEF8093140180911501DF
:1002D000882311F05F9A04C05F988FEF8093150117
:1002E00080911601882311F02F9A04C02F988FEF68
:1002F0008093160180911701882311F0589A04C049
:1003000058988FEF8093170180911801882311F07E
:10031000599A04C059988FEF809318018091190160
:10032000882311F0729A04C072988FEF809319019C
:1003300080911A01882311F08F9A04C08F988FEF53
:1003400080931A0180911B01882311F0479A04C001
:1003500047988FEF80931B01809105019191981729
:1003600008F4892F91E0EC31F907C1F7809305017A
:1003700087BD9091000180910101890F8093000158
:10038000FF91EF91DF91CF91BF91AF919F918F91AD
:100390000F900FBE0F901F9018951F920F920FB6DF
:1003A0000F9211248F939F93EF93FF9380910501F8
:1003B0008F3F09F47AC090911101981304C0769888
:1003C0008FEF809311019091120180910501981394
:1003D00004C05C988FEF809312019091130180917B
:1003E0000501981304C05E988FEF809313019091DC
:1003F000140180910501981304C046988FEF8093F3
:1004000014019091150180910501981304C05F9823
:100410008FEF80931501909116018091050198133B
:1004200004C02F988FEF809316019091170180914F
:100430000501981304C058988FEF8093170190918D
:10044000180180910501981304C059988FEF80938B
:1004500018019091190180910501981304C07298B8
:100460008FEF8093190190911A01809105019813E3
:1004700004C08F988FEF80931A0190911B01809197
:100480000501981304C047988FEF80931B01E1E1A9
:10049000F1E08FEF9191981708F4892F91E0EC31FA
:1004A000F907C1F78093050187BDFF91EF919F91F7
:1004B0008F910F900FBE0F901F90189514BC84E081
:1004C00085BD83E080936E00279A87B1806C87B9E1
:1004D0008AB1836D8AB98DB184648DB9879A089584
:1004E00084B7877F84BF0FB6F894A8958091600089
:1004F000886180936000109260000FBE90E080E8F9
:100500000FB6F89480936100909361000FBE209A1B
:10051000289A559A5D9A3F9A4798E4DDCFDF63DECB
:10052000EDDD32D1F2CDCF93DF93CDB7DEB7699752
:100530000FB6F894DEBF0FBECDBFD2DF78948BE24A
:10054000F5DD8BE2F3DD8BE2F1DD8AE0EFDD2FEF0D
:1005500089E698E1215080409040E1F700C000001A
:10056000ECDD882319F0F2DD8983FACF81E4DEDD4A
:1005700084E5DCDD8BE2DADD82E4D8DD8CE4D6DDF7
:1005800085E4D4DD87E4D2DD85E4D0DD84E5CEDD0D
:1005900081E4CCDD84E4CADD84E4C8DD82E5C6DD27
:1005A0008AE0C4DDEFEFF9E628E1E150F0402040B9
:1005B000E1F700C000008E010F5F1F4F6E0180E168
:1005C000C80ED11C7801B9DD882341F0EC14FD047C
:1005D00029F0BCDDF70181937F01F5CF7801ADDD16
:1005E000882329F0B3DDF70181937F01F8CF81E4FF
:1005F0009DDD84E59BDD8BE299DD87E497DD81E479
:1006000095DD80E593DD84E491DD85E48FDD86E58D
:100610008DDD8EE48BDD81E489DD8DE487DD85E48D
:1006200085DD8DE383DD84E781DD8CE67FDD8B85F1
:100630007DDD8D857BDD8E8579DD888977DD898916
:1006400075DD8AE073DDFFEF29E688E1F150204097
:100650008040E1F700C0000070DD882329F076DDDE
:10066000F80181938F01F8CF89818F3439F48A8121
:100670008B3461F48FEF80930C0108C0813431F426
:100680008A81843519F48FEF80930D0181E44EDD6A
:1006900084E54CDD8AE54ADD8AE048DDFFCF982F0E
:1006A000973058F59093E900981739F07091EC0065
:1006B0002091ED005091F00003C0242F762F50E0E0
:1006C00021FF19C03091EB003E7F3093EB00309159
:1006D000ED003D7F3093ED003091EB0031603093C1
:1006E000EB007093EC002093ED005093F00020910C
:1006F000EE0027FF07C09F5FD3CF8F708093E90084
:1007000081E0089580E008950F931F93CF93DF93C6
:100710004BD052D0C8EDD0E088818F778883888114
:100720008068888388818F7D888319BC10922E030E
:1007300010922A0310922C0310922B0300EE10E06B
:10074000F80180818B7F808388818160888342E08B
:1007500060E080E0A4DFE1EEF0E080818E7F8083C6
:10076000E2EEF0E080818160808380818860808318
:10077000F80180818E7F8083888180618883DF910A
:10078000CF911F910F910895E8EDF0E080818F7E69
:100790008083E7EDF0E080818160808384E082BF28
:1007A00081E080932D03B0CFE8EDF0E080818E7F73
:1007B00080831092E20008951092DA001092E10016
:1007C00008951F920F920FB60F9211242F933F930B
:1007D0004F935F936F937F938F939F93AF93BF9349
:1007E000EF93FF938091E10082FF0AC08091E200C5
:1007F00082FF06C08091E1008B7F8093E100A7D04B
:100800008091DA0080FF1DC08091D80080FF19C060
:100810008091DA008E7F8093DA008091D90080FF8A
:100820000CC080E189BD82E189BD09B400FEFDCF25
:1008300081E080932E038BD004C019BC10922E034C
:1008400086D08091E10080FF18C08091E20080FF97
:1008500014C08091E2008E7F8093E2008091E200DC
:1008600080618093E2008091D80080628093D800FC
:1008700019BC85E080932E036AD08091E10084FF4B
:100880002FC08091E20084FF2BC080E189BD82E10E
:1008900089BD09B400FEFDCF8091D8008F7D809383
:1008A000D8008091E1008F7E8093E1008091E2008A
:1008B0008F7E8093E2008091E20081608093E2006D
:1008C00080912A03882311F084E007C08091E3001F
:1008D00087FD02C081E001C083E080932E0337D002
:1008E0008091E10083FF22C08091E20083FF1EC05F
:1008F0008091E100877F8093E10082E080932E0366
:1009000010922A038091E1008E7F8093E100809114
:10091000E2008E7F8093E2008091E200806180930C
:10092000E20042E060E080E0BADE11D0FF91EF919A
:10093000BF91AF919F918F917F916F915F914F91F7
:100940003F912F910F900FBE0F901F901895089513
:04095000F894FFCF49
:00000001FF
