:1000000010C028C027C026C025C024C0D1C021C12F
:1000100021C020C01FC01EC01DC01CC01BC01AC0F4
:1000200019C011241FBECFEDCDBF10E0A0E6B0E097
:10003000EEECF2E002C005900D92A436B107D9F7BC
:1000400010E0A4E6B0E001C01D92A537B107E1F7CA
:100050004DD03BC1D5CF8AB38F788ABB8CE18DB9A7
:100060008EB1807F8EB90895109274008AB38F602C
:100070008ABB1FBC89E08EBD80E49CE99BBD8ABD24
:1000800086E08CB90895D79A87B3876087BB83EAE7
:1000900080BF81E083BF0895843019F0863031F449
:1000A00002C0C19A01C0C1986CBF0895853011F497
:1000B000C09A01C0C09866BF089516BE1CBE0895C0
:1000C00080E892E590936D0080936C0090936F00B0
:1000D00080936E00909371008093700090937300F2
:1000E000809372008BB3807F8BBB08950F931F9317
:1000F00080ED97E00197F1F7B7DFC5DF8AB38F781E
:100100008ABB8CE18DB98EB1807F8EB9D9DF16BEE6
:100110001CBE789410E033C001E0CD99FECF769BF1
:10012000FCCF769A8EB1807F8EB9002351F410B344
:100130001F3F11F4C5DFF1CF1E3F71F716BE1CBE85
:10014000ECCF60B31430B8F4862F825E8D3108F4A2
:1001500061EEE12FF0E0EE0FFF1FE459FF4F862F15
:1001600090E0855B9F4F26E0880F991F2A95E1F765
:100170009183808304C0183010F4812F8DDF00E05C
:10018000CCCFE82F862F825E8D3108F461EEF0E04F
:10019000EE0FFF1FE459FF4F862F90E0855B9F4FC6
:1001A00046E0880F991F4A95E1F79183808308956F
:1001B0001F920F920FB60F9211242F938F939F933C
:1001C000AF93BF93EF93FF93A0917400E0917400FD
:1001D000B0E0AA0FBB1FAC59BF4FF0E0EE0FFF1FFE
:1001E000E459FF4F808191818D939C93E09174003D
:1001F000F0E0EE0FFF1FEC59FF4F8081918181509D
:100200009B4480F42BB3E0917400F0E0E05AFF4F80
:1002100081E090E0008002C0880F991F0A94E2F705
:10022000282B2BBBE0917400F0E0EE0FFF1FEC5980
:10023000FF4F8081918199BD88BDFF91EF91BF9162
:10024000AF919F918F912F910F900FBE0F901F90A4
:1002500018951F920F920FB60F9211242F938F9320
:100260009F93EF93FF93E0917400F0E0EE0FFF1F78
:10027000EC59FF4F8081918181509B4488F42BB3CE
:10028000E0917400F0E0E05AFF4F81E090E00080E0
:1002900002C0880F991F0A94E2F7809582238BBBD6
:1002A000809174008F5F809374008091740084301B
:1002B00010F010927400FF91EF919F918F912F9108
:0E02C0000F900FBE0F901F901895F894FFCF6F
:0402CE000001020326
:02000004008278
:03000000E2DDFF3F
:00000001FF
