:10000000AAC00000C4C00000C2C00000C0C0000000
:10001000BEC00000BCC00000BAC00000B8C00000F4
:10002000B6C00000B4C000000C94AD09B0C0000020
:10003000AEC00000ACC00000AAC00000A8C0000014
:10004000A6C00000A4C00000A2C00000A0C0000024
:100050009EC000006DC100009AC0000099C0000061
:1000600096C0000025C3000092C0000090C00000B0
:100070008EC000008CC000008AC0000088C0000054
:1000800086C0000084C0000082C0000080C0000064
:100090007EC000007CC000007AC0000078C0000074
:1000A00076C0000074C0000072C000000600FF09A6
:1000B00001A1010902150025FF75089508810209B3
:1000C00003150025FF750895089102C01201100163
:1000D000000000085423222200020102000109024C
:1000E000220001010080FA09040000010300000061
:1000F00009211101000122200007058103080001E8
:10010000040309042E0342006900720064004200E7
:100110007200610069006E002000540065006300F9
:1001200068006E006F006C006F006700690065007A
:10013000730000002003480075006D006D00690029
:100140006E006700620069007200640020004400D5
:1001500075006F00000011241FBECFEFDAE0DEBF94
:10016000CDBF11E0A0E0B1E0EAE8FCE102C00590FB
:100170000D92A031B107D9F713E0A0E1B1E001C0C1
:100180001D92A136B107E1F730D30C94430E38CF5E
:100190001F920F920FB60F9211242F933F938F93BC
:1001A0009F93AF93BF93EF93FF9380912701882391
:1001B000F9F490912801953118F09093250102C02F
:1001C0001092250180912901882311F49F5F01C0BD
:1001D000915090932801809128018E3F20F081E07A
:1001E000809329010AC0833040F41092290105C090
:1001F000813019F48FEF8093250120E030E0F90180
:10020000E05FFE4FD901A55EBE4F8C9180832F5FCA
:100210003F4F2B30310599F780911001882311F061
:10022000769A04C076988FEF809310018091110127
:10023000882311F05C9A04C05C988FEF80931101C1
:1002400080911201882311F05E9A04C05E988FEFAE
:100250008093120180911301882311F0469A04C003
:1002600046988FEF8093130180911401882311F039
:100270005F9A04C05F988FEF8093140180911501FD
:10028000882311F02F9A04C02F988FEF80931501C7
:1002900080911601882311F0589A04C058988FEF66
:1002A0008093160180911701882311F0599A04C098
:1002B00059988FEF8093170180911801882311F0CE
:1002C000729A04C072988FEF80931801809119017F
:1002D000882311F08F9A04C08F988FEF80931901B3
:1002E00080911A01882331F0479A80912601E0E13C
:1002F000F1E005C047988FEF80931A01F6CF908107
:10030000981708F4892F319691E0EB31F907B9F786
:100310008093260187BDFF91EF91BF91AF919F918F
:100320008F913F912F910F900FBE0F901F901895B6
:100330001F920F920FB60F9211248F939F93EF93FA
:10034000FF93909126019F3F09F467C080911001AF
:10035000891721F476988FEF809310018091110115
:10036000891721F45C988FEF80931101809112011D
:10037000891721F45E988FEF809312018091130109
:10038000891721F446988FEF80931301809114010F
:10039000891721F45F988FEF8093140180911501E4
:1003A000891721F42F988FEF809315018091160102
:1003B000891721F458988FEF8093160180911701C7
:1003C000891721F459988FEF8093170180911801B4
:1003D000891721F472988FEF809318018091190189
:1003E000891721F48F988FEF8093190180911A015A
:1003F000891721F447988FEF80931A01E0E1F1E02B
:100400008FEF9081981708F4892F319691E0EB31A6
:10041000F907B9F78093260187BDFF91EF919F916E
:100420008F910F900FBE0F901F90189514BC84E011
:1004300085BD83E080936E00279A87B1806C87B971
:100440008AB1836D8AB98DB184648DB9879A089514
:1004500080931B0160931C0140931D0108958093BC
:100460001E0160931F01409320010895813321F400
:10047000CB01BA01A901F3CFCB01BA01A901E8CFA1
:100480008093210108958093220108958093230190
:100490000895809324010895813361F0823318F424
:1004A000803371F405C0823339F0833349F406C0D8
:1004B000CB01E6CFCB01E7CFCB01E8CFCB01E9CF32
:1004C000089580E090E060E070E040E050E0C0DF40
:1004D00080E090E060E070E040E050E0C0DF80E06D
:1004E00090E0CEDF80E090E0CEDF80E090E0CEDFF5
:1004F00080E090E0CECF80E680937C0084E880931B
:100500007A0010927B0083E780937E0008958093A9
:100510007C0080917A00806480937A0080917A00D8
:1005200086FDFCCF80917A00806180937A00809173
:10053000790090E0089584B1866184B985E58CBD29
:100540002C9A08952C989AE69A95F1F78EBD0DB4E1
:1005500007FEFDCF85ED8A95F1F72C9A08958EEF71
:10056000F1CFEF92FF920F931F93082FF62EE42EF8
:10057000982F9C5F862F880F890FE4DF88EC90E02E
:100580000197F1F78E2DDEDF10E0000F111FEAE278
:10059000F1E0DF01A00FB11FFC92FD01E1821F918C
:1005A0000F91FF90EF9008958FEFCCCF0F931F9393
:1005B000182F062FC7DF88EC90E00197F1F7802F06
:1005C000C1DFEEE2F1E0E10FF11D00831F910F9119
:1005D0000895262F30E0803339F43093890020933A
:1005E000880060933201089530938B0020938A0035
:1005F0006093330108951092890010928800109240
:100600008B0010928A0010923201109233010895EB
:1006100081EA8093800089E08093810084B18066C4
:1006200084B9E9CF82E08093C80088E98093C9004B
:1006300086E08093CA00109252031092530380E127
:100640008093CC000895982F8091C80085FFFCCF3F
:100650009093CE000895909152038091530320E02F
:10066000981321E0822F08951F9380915303E2E5B0
:10067000F2E0E80FF11D1081809153038F5F8093AA
:100680005303812FE0DF812F1F9108959091520332
:100690009F5F809153032091CE00981741F0E09125
:1006A0005203F0E0EE5AFD4F2083909352030895D9
:1006B0001F920F920FB60F9211242F933F934F93D7
:1006C0005F936F937F938F939F93AF93BF93EF93BA
:1006D000FF93DCDFFF91EF91BF91AF919F918F91DD
:1006E0007F916F915F914F913F912F910F900FBE2E
:1006F0000F901F90189508951092270130DFE1DECA
:1007000053DF79CF80910E0190910F01009729F06E
:10071000019790930F0180930E0108950F931F93FB
:10072000A801ECE3F2E060933C026093470200937F
:100730003D02528300934802509349023396CF0101
:10074000B9010E94330E1F910F9108950F931F93CB
:10075000CF93DF93FB01C901E801209147022111EA
:1007600020832AE432E04091480250914902B901C5
:100770000E94330E809148029091490299838883A8
:1007800080E0DF91CF911F910F91089580E091E07B
:100790000C94E10C80E091E00E94C00CE2EEF0E0ED
:1007A000808184608083089584B7877F84BF88E1D7
:1007B0000FB6F89480936000109260000FBE80E046
:1007C00090E020E80FB6F8942093610080936100D8
:1007D0000FBE209A289A559A5D9A3F9A47988BDEC9
:1007E00025DE16DFA8DE9CD51DCF2F923F924F92BB
:1007F0005F926F927F928F929F92AF92BF92CF92B1
:10080000DF92EF92FF920F931F93DF93CF93CDB7B9
:10081000DEB72E970FB6F894DEBF0FBECDBFC4DF94
:10082000789466247724AA24BB24650150E2E52E3F
:1008300051EAF52E57E0052F112D99248824839431
:1008400040E4442E4FE1542E32E0232E312C2C0E66
:100850003D1ECE0104969C878B87FE013596FE8750
:10086000ED87CE0106969A8789870AC0AA24BB2401
:10087000650120E4E22E2BE4F22E2CE4022F112D50
:1008800080E091E0AED798D7AE14BF04C006D10681
:1008900038F065DE16DE88DEAEDE1092270105C078
:1008A0000894A11CB11CC11CD11CD5DE882309F4FD
:1008B00086C1DADE8983823509F404C1833570F498
:1008C0008C3409F445C08D3418F4873491F601C195
:1008D0008D3409F460C08F3461F613C0883509F493
:1008E000EEC0893538F4833509F49CC0863509F0AB
:1008F000C0CF76C0833709F4B8C08A3709F0B9CFC2
:100900004EC180922701810118C0C2010197F1F701
:100910009394A1DE882321F49AEF9916B1F7A9CF19
:10092000E9EFE91508F4A5CF9FDEF80181938F0167
:1009300089859A85E817F90711F09924EACF6B8128
:100940004C812D818A8170E050E030E08FDD8ECFC8
:1009500080922701810118C0C2010197F1F7939499
:100960007ADE882321F49AEF9916B1F782CFE9EF66
:10097000E91508F47ECF78DEF80181938F018B852D
:100980009C85E817F90711F09924EACF6B818A81D9
:1009900070E082DD6BCF80922701810118C0C20117
:1009A0000197F1F7939457DE882321F49AEF991673
:1009B000B1F75FCFE9EFE91508F45BCF55DEF80139
:1009C00081938F018D859E85E817F90711F0992491
:1009D000EACF8A816B81605380534C81C2DD46CF60
:1009E00080922701810118C0C2010197F1F7939409
:1009F00032DE882321F49AEF9916B1F73ACFE9EF66
:100A0000E91508F436CF30DEF80181938F018B852C
:100A10009C85E817F90711F09924EACF8A816B8148
:100A2000D8DD24CF80922701810118C0C20101972F
:100A3000F1F7939410DE882321F49AEF9916B1F719
:100A400018CFE9EFE91508F414CF0EDEF801819311
:100A50008F018B859C85E817F90711F09924EACF5F
:100A60008A8180536B81A2DD01CF8092270104C06F
:100A7000C2010197F1F79394EEDD882321F499EFF9
:100A80009915B0F7F6CEE9EFE91508F4F2CEECDDF2
:100A90008A83803311F486E603C0813321F485E62E
:100AA00036DDD1DDE3CE823311F484E6F9CF833332
:100AB00011F481E6F5CF843309F0D8CE61C080927D
:100AC000270102C0109227014ADDFBDC6DDD93DDBA
:100AD000CDCE8092270104C0C2010197F1F7939413
:100AE000BADD882321F4F9EFF915B0F7C2CE89EF0A
:100AF000891508F4BECEB8DD8A83803359F40BE142
:100B000011E0F80181918F019EDDF1E002321F07B3
:100B1000C1F7ACCE8133A1F48091220194DD8091A4
:100B2000230191DD809124018EDD0EE211E0F801B8
:100B300081918F0188DDF1E002331F07C1F796CE66
:100B4000823381F40AE211E0F80181918F017BDDAB
:100B5000F1E00E321F07C1F78091320174DD809100
:100B600033019FCF833371F486E6D1DC6CDD85E6FB
:100B7000CEDC69DD84E6CBDC66DD81E6C8DC63DDE6
:100B800080E68ECF843309F071CE83E05CDD80E0B7
:100B90005ADD82E058DD81E056DD87E682CF809223
:100BA0002701862D50DD0894611C711C8FEF68169B
:100BB000710409F00CF45ACE6624772457CE809144
:100BC0003F02823509F466C0833570F48C3451F1EC
:100BD0008D3420F4873409F053CE61C08D3449F14F
:100BE0008F3409F04DCE11C0883509F453C08935D2
:100BF00030F4833571F1863509F042CE24C0833755
:100C000079F18A3709F03CCEB4C06091410240913D
:100C10004202209143028091400270E050E030E0B7
:100C200025DCB3C0609141028091400270E034DC69
:100C3000ACC080914002609141026053805340916A
:100C400042028FDCA2C08091400260914102C1DC6F
:100C50009CC080914002805360914102A7DC95C006
:100C600080914002803311F486E610C0813311F484
:100C700085E60CC0823311F484E608C0833311F496
:100C800081E604C0843309F080C080E640DC8093B4
:100C90004A027BC064DC15DC87DCADDC76C0809169
:100CA0004002803359F4EBE1F1E0AAE4B2E0819133
:100CB0008D9391E0E232F907D1F767C08133B9F43F
:100CC0008091220180934A028091230180934B02FC
:100CD0008091240180934C02EEE2F1E0ADE4B2E0B9
:100CE00081918D9381E0E233F807D1F74EC08233D2
:100CF000C9F480912A0180934A0280912B0180934C
:100D00004B0280912C0180934C0280912D018093A5
:100D10004D028091320180934E0280913301809385
:100D20004F0233C08333A9F486E6F1DB80934A0295
:100D300085E6EDDB80934B0284E6E9DB80934C0291
:100D400081E6E5DB80934D0280E6E1DB80934E0295
:100D50001CC08433D1F493E090934A0210924B026A
:100D6000E2E0E0934C0280924D02F7E6F0934E02EF
:100D70000CC060924A020894611C711C8FEF6816C7
:100D8000710419F014F06624772480913F028235B3
:100D900019F41092270102C08092270110923F029D
:100DA0008091460280935102AA24BB24650190E2FF
:100DB000E92E91EAF92E97E0092F112D61CDDA0184
:100DC0009330B1F0943028F4913041F0923079F5BD
:100DD0000AC0913211F1923251F524C0ECECF0E0EE
:100DE00022E130E028C0EEEDF0E022E230E023C066
:100DF000813049F0813018F08230C9F40AC0E0E057
:100E0000F1E0849103C0E4E0F1E08491282F30E028
:100E100012C0E4E3F1E08491F9CFE0EFF0E029E0E3
:100E200030E009C0ECEAF0E020E230E004C0E0E0AD
:100E3000F0E020E030E0ED93FC93C90108959C01BF
:100E400040915F03509160034617570718F4F9016A
:100E500090E045C06115710511F0AB01F8CF8091AC
:100E6000E8008E778093E80040E050E0F0CF80917A
:100E70005803882309F445C0853009F444C08091A3
:100E8000E80083FF02C081E008958091E80082FDC0
:100E900032C08091E80080FF22C08091F3009091E1
:100EA000F200782F60E0292F30E0262B372B07C087
:100EB00081918093F100415050402F5F3F4F411589
:100EC000510519F02830310598F390E028303105AC
:100ED00009F491E08091E8008E778093E800411555
:100EE000510529F6992319F606C0809158038823E5
:100EF00041F0853041F08091E80082FFF6CF80E03C
:100F0000089582E0089583E008959C0161157105BC
:100F100029F48091E8008B778093E800F90127C0DD
:100F200080915803882399F1853099F18091E800E8
:100F300083FF02C081E008958091E80082FFF0CF36
:100F400006C08091F10081936150704059F020916A
:100F5000F3008091F200322F20E090E0822B932B5F
:100F6000892B79F78091E8008B778093E8006115F1
:100F70007105B1F606C080915803882341F0853091
:100F800041F08091E80080FFF6CF80E0089582E094
:100F9000089583E008959C0140915F0350916003A0
:100FA0004617570718F4F90190E046C0611571051E
:100FB00011F0AB01F8CF8091E8008E778093E800C4
:100FC00040E050E0F0CF80915803882309F447C0F7
:100FD000853009F446C08091E80083FF02C081E0BB
:100FE00008958091E80082FD34C08091E80080FF80
:100FF00023C08091F3009091F200782F60E0292FB8
:1010000030E0262B372B08C084918093F100319675
:10101000415050402F5F3F4F4115510519F0283086
:10102000310590F390E02830310509F491E080918A
:10103000E8008E778093E8004115510521F6992349
:1010400009F0C1CF06C080915803882341F0853054
:1010500041F08091E80082FFF6CF80E0089582E0C1
:10106000089583E00895BF92CF92DF92EF92FF92AE
:101070000F931F93CF93DF93182F092F7B016A01E2
:10108000D9D0B82E8823B1F5812F902F9C01E9018A
:10109000C114D10439F0F60180819181E81AF90A6E
:1010A000C80FD91F00E010E022C08091E80085FD44
:1010B00016C08091E8008E778093E8007DD3C1143C
:1010C000D10449F0F60180819181800F911F9183B5
:1010D000808385E010C0AED0882349F00CC0899190
:1010E0008093F1000894E108F1080F5F1F4FE114AD
:1010F000F104D9F68B2DDF91CF911F910F91FF90C5
:10110000EF90DF90CF90BF900895382F282F2EC0FA
:10111000822F8F708093E900231721F4762F942F6C
:1011200050E006C07091EC009091ED005091F000FD
:1011300091FF1BC08091EB008E7F8093EB0080912C
:10114000ED008D7F8093ED008091EB0081608093B6
:10115000EB007093EC009093ED005093F0008091C1
:10116000EE0087FD02C080E008952F5F273080F2F7
:101170003F703093E90081E008950F931F93CF9360
:10118000DF93062FEC0110E02AC09881992329F102
:101190006B81E981FA812C81892F8F70873018F556
:1011A000223010F452E001C056E040E028E030E088
:1011B00003C04F5F220F331F2E173F07D0F36295F6
:1011C000660F660F607C991F9927991F692B4295BE
:1011D000407F452B9ADF882331F01F5F259610173B
:1011E000A0F281E001C080E0DF91CF911F910F91CB
:1011F00008958091590388239CF404C0809158037A
:101200008823B9F08091E80082FFF8CF8091E80050
:101210008B778093E800089580915803882349F0E4
:101220008091E80080FFF8CF8091E8008E7780936E
:10123000E80008954091E4005091E50024E6809193
:10124000EC0080FF24C08091E80080FD1EC08091EA
:101250005803882311F482E00895853011F483E067
:1012600008958091EB0085FF02C081E00895809190
:10127000E4009091E5008417950709F3222311F407
:1012800084E008952150AC01DACF80E00895809188
:10129000E80082FFDCCFF9CFEF92FF920F931F930C
:1012A0004FD056D008ED10E0F80180818F77808311
:1012B00080818068808380818F7D808319BC1092BB
:1012C000580310925403109256031092550380EE67
:1012D000E82EF12CF70180818B7F8083F8018081DB
:1012E0008160808380E060E042E00FDFE1EEF0E0CB
:1012F00080818E7F8083E2EEF0E080818160808358
:10130000808188608083F70180818E7F8083F801EF
:101310008081806180831F910F91FF90EF900895ED
:10132000E8EDF0E080818F7E8083E7EDF0E0808162
:101330008160808384E082BF81E080935703ACCFDB
:10134000E8EDF0E080818E7F80831092E2000895C6
:101350001092DA001092E10008951F920F920FB6DA
:101360000F9211242F933F934F935F936F937F932B
:101370008F939F93AF93BF93EF93FF938091E1007F
:1013800082FF0AC08091E20082FF06C08091E100E6
:101390008B7F8093E100B6D98091DA0080FF1DC079
:1013A0008091D80080FF19C08091DA008E7F8093F1
:1013B000DA008091D90080FF0CC080E189BD82E114
:1013C00089BD09B400FEFDCF81E08093580393D915
:1013D00004C019BC109258038FD98091E10080FF9E
:1013E00018C08091E20080FF14C08091E2008E7FDF
:1013F0008093E2008091E20080618093E20080911E
:10140000D80080628093D80019BC85E0809358038F
:10141000D2D18091E10084FF2FC08091E20084FF4F
:101420002BC080E189BD82E189BD09B400FEFDCFFA
:101430008091D8008F7D8093D8008091E1008F7ECD
:101440008093E1008091E2008F7E8093E2008091A2
:10145000E20081608093E20080915403882311F0C0
:1014600084E007C08091E30087FD02C081E001C0F5
:1014700083E0809358039FD18091E10083FF22C0D5
:101480008091E20083FF1EC08091E100877F8093FE
:10149000E10082E080935803109254038091E100B0
:1014A0008E7F8093E1008091E2008E7F8093E20046
:1014B0008091E20080618093E20080E060E042E0A1
:1014C00024DE79D1FF91EF91BF91AF919F918F91E0
:1014D0007F916F915F914F913F912F910F900FBE30
:1014E0000F901F9018951F93DF93CF93CDB7DEB762
:1014F000AC970FB6F894DEBF0FBECDBFE9E5F3E0C1
:101500008091F100819323E0E136F207C9F73ED9DB
:101510008091E80083FF37C18091590330915A03CD
:10152000353009F487C0363040F43130C9F13130FC
:1015300070F0333009F027C133C0383009F4F5C0FA
:10154000393009F404C1363009F01DC196C0803825
:1015500021F0823809F017C108C09091550380919D
:101560005603882399F0926011C080915D038F70BB
:101570008093E9008091EB0090E025E096958795B7
:101580002A95E1F7982F91701092E9008091E80078
:10159000877F8093E8009093F1001092F100D0C013
:1015A000882319F0823009F0EEC090E08F719070BE
:1015B000009721F0029709F0E6C00CC080915B0310
:1015C000813009F0E0C010925603333069F5809302
:1015D00056032AC080915B03882331F520915D0377
:1015E0002F7009F4D0C02093E9008091EB0080FFB8
:1015F0001BC0333021F48091EB00806213C08091D6
:10160000EB0080618093EB0081E090E002C0880FE6
:10161000991F2A95E2F78093EA001092EA008091E0
:10162000EB0088608093EB001092E9008091E80065
:10163000877F89C0882309F0A6C010915B031F77BC
:101640008091E3008078812B8093E3008091E80013
:10165000877F8093E800CDDD8091E80080FFFCCF9C
:101660008091E30080688093E300112311F482E00D
:1016700001C083E08093580386C08058823008F010
:1016800082C080915B0390915C0323E08C3D9207C4
:1016900009F033C083E08C838AE28B837FB7F894B0
:1016A000DE0115966EE040E050E011E2E62FF0E03A
:1016B00010935700849140FF03C082958F706F5F35
:1016C0008F70282F30E08A3018F0C901C79602C009
:1016D000C901C0968D939D934F5F5F4F4431510573
:1016E00029F77FBF8091E800877F8093E800CE01D3
:1016F00003966AE270E0A3DB12C060915D03AE0165
:101700004F5F5F4F5CDBBC01009709F43CC08091E8
:10171000E800877F8093E80089819A813CDC809192
:10172000E8008B778093E8002EC0803861F58091C7
:10173000E800877F8093E800809154038093F10054
:101740008091E8008E778093E80053DD1CC08823E9
:10175000D1F490915B039230B0F48091E800877FE0
:101760008093E8009093540344DD809154038823D0
:1017700031F48091E30087FD02C081E001C084E084
:101780008093580307D88091E80083FF0AC08091B6
:10179000E800877F8093E8008091EB00806280936F
:1017A000EB00AC960FB6F894DEBF0FBECDBFCF9165
:1017B000DF911F91089508951F9380915803882306
:1017C00071F01091E9008091EC001092E900809195
:1017D000E80083FF01C087DE1F701093E9001F91AE
:1017E00008954F925F926F927F928F929F92AF92E5
:1017F000BF92CF92DF92EF92FF920F931F93DF93EE
:10180000CF9300D00F92CDB7DEB77C016DB67EB618
:1018100080915803843009F09AC02091E4003091FF
:10182000E500F701828593858217930709F48FC03D
:1018300081818F708093E9008091E80085FF87C0E7
:101840005DB64EB6408550E08DB79EB7841B950BB4
:101850000FB6F8949EBF0FBE8DBF0DB71EB70F5FBA
:101860001F4F19821B821A82C02E912EC80160E080
:1018700070E050E001D2C701BE016F5F7F4F40E0D2
:1018800098018E010E5F1F4F0E94A603882EF7015C
:1018900084859585892B19F4AA24BB240BC020E0EC
:1018A000F70186859785892B09F021E081E02827BB
:1018B000A22EBB24F701068117810115110511F431
:1018C000DD2412C04A815B818C2D992DB801BED1D7
:1018D000DD24009711F0DD24D394F7014085C80181
:1018E0006C2D792D50E0BFD18A819B81892B01F12C
:1018F000882021F4DD2011F4AB28D1F0F701848594
:1019000095859787868781818F708093E90089818B
:10191000882311F08093F1006A817B818C2D992DB1
:1019200040E050E0A0DB8091E8008E778093E800F3
:101930008091E4009091E500F70193878287252D3F
:10194000342DC9010FB6F8949EBF0FBE8DBF0FB6E0
:10195000F8947EBE0FBE6DBE0F900F900F90CF918A
:10196000DF911F910F91FF90EF90DF90CF90BF908C
:10197000AF909F908F907F906F905F904F90089561
:10198000CF93DF93DC010996FC0187E0EF01199208
:101990008A95E9F781E019968C93199784EF91E085
:1019A0001D969C938E931C9783E014968C931497AA
:1019B000CD01019661E0E1DB811181E0DF91CF9102
:1019C00008956F927F928F929F92AF92BF92CF9223
:1019D000DF92EF92FF920F931F93DF93CF9300D08C
:1019E0000F92CDB7DEB76C016DB67EB68091E80080
:1019F00083FF15C1F601808190E020915D03309155
:101A00005E032817390709F00AC180915A03833011
:101A100009F4ADC0843030F4813071F0823009F0C7
:101A2000FEC0E1C08A3009F4C6C08B3009F4B0C0F2
:101A3000893009F0F4C057C080915903813A09F008
:101A4000EEC09DB68EB61B821A8280915B03109108
:101A50005C038983F601408550E08DB79EB7841BF7
:101A6000950B0FB6F8949EBF0FBE8DBFEDB6FEB6B8
:101A70000894E11CF11CBE2CAF2CC70160E070E0A3
:101A800050E0FAD01150C601BE016F5F7F4F412F69
:101A900097018E010E5F1F4F0E94A603F60126815B
:101AA00037812115310529F04085C901B70150E082
:101AB000DAD01092E9008091E800877F8093E800F7
:101AC0006A817B818B2D9A2DBAD98091E8008B7722
:101AD0008093E800292D382DC9010FB6F8949EBFD8
:101AE0000FBE8DBF9CC080915903813209F097C011
:101AF0009DB68EB600915F0310916003A0905B03CA
:101B0000B0905C038DB79EB7801B910B0FB6F89415
:101B10009EBF0FBE8DBFEDB6FEB60894E11CF11C52
:101B20008091E800877F8093E800C701B801EDD974
:101B30008091E8008E778093E80080E090E0AA2012
:101B400011F081E090E0BA94E80EF91E081B190B21
:101B5000C6016A2D4B2D97010E948E03892D982D69
:101B60009C010FB6F8943EBF0FBE2DBF58C08091A8
:101B70005903813A09F053C08091E800877F809330
:101B8000E8008091E80080FFFCCFF60181853FC02E
:101B900080915903813209F042C08091E800877F2B
:101BA0008093E80026DB90E080915B03811191E057
:101BB000F601918734C080915903813281F580917B
:101BC000E800877F8093E80014DB80915B039091AD
:101BD0005C03807036E0969587953A95E1F7F601BB
:101BE000958784871CC080915903813AC1F4809104
:101BF000E800877F8093E8008091E80080FFFCCFB9
:101C0000F601848595859695879596958795809319
:101C1000F1008091E8008E778093E800EADA0FB651
:101C2000F8947EBE0FBE6DBE0F900F900F90CF91B7
:101C3000DF911F910F91FF90EF90DF90CF90BF90B9
:101C4000AF909F908F907F906F900895FB01DC0183
:101C500004C08D910190801921F441505040C8F783
:101C6000881B990B0895FB01DC0102C001900D92C5
:101C700041505040D8F70895DC0101C06D934150A8
:0A1C80005040E0F70895F894FFCFFC
:101C8A000081080000013401080000000000000083
:00000001FF
