:10000000B4C00000CEC00000CCC00000CAC00000D8
:10001000C8C00000C6C00000C4C00000C2C00000CC
:10002000C0C00000BEC000000C948B0ABAC0000023
:10003000B8C00000B6C00000B4C00000B2C00000EC
:10004000B0C00000AEC00000ACC00000AAC00000FC
:10005000A8C0000091C20000A4C00000BDC1000003
:10006000A0C000006DC100009CC000009AC000004C
:1000700098C0000096C0000094C0000092C000002C
:1000800090C000008EC000008CC000008AC000003C
:1000900088C0000086C0000084C0000082C000004C
:1000A00080C000007EC000007CC00000780B9A0B6E
:1000B000810C9A0B810CDF0B010C810C530C650C2D
:1000C0002003480075006D006D0069006E00670038
:1000D00062006900720064002000440075006F0037
:1000E00000002E03420069007200640042007200AA
:1000F000610069006E002000540065006300680024
:100100006E006F006C006F0067006900650073008F
:1001100000000403090409022200010100C0FA09D9
:100120000400000103000000092111010001222048
:1001300000070581030800011201100100000008FA
:10014000542322220002010200010600FF0901A13E
:10015000010902150025FF7508950881020903159C
:100160000025FF750895089102C011241FBECFEF2E
:10017000DAE0DEBFCDBF11E0A0E0B1E0E4ECFDE1EC
:1001800002C005900D92A031B107D9F723E0A0E19C
:10019000B1E001C01D92A536B207E1F7E7D20C9499
:1001A000E00E2ECF80E680937C0084E880937A0076
:1001B00010927B0083E780937E00089580937C00FB
:1001C00080917A00806480937A0080917A0086FD25
:1001D000FCCF80917A00806180937A0080917900D1
:1001E00090E0089584B1866184B985E58CBD2C9A30
:1001F00008952C989AE69A95F1F700C08EBD0DB43B
:1002000007FEFDCF85ED8A95F1F700002C9A089541
:100210008EEFEFCF0F931F93CF93DF931F92CDB746
:10022000DEB7182F042F94E0980F862F880F890FC0
:100230006983DFDF87EC90E00197F1F700C00000F1
:10024000802FD7DFE12FF0E0DF01AA0FBB1FAC5CEE
:10025000BE4F69816C9311960C93EE5CFE4F802F1C
:1002600086956111805880830F90DF91CF911F9107
:100270000F9108958FEFBDCFCF93DF93C82FD62F67
:10028000B8DF87EC90E00197F1F700C000008D2FF8
:10029000B0DFEC2FF0E0E25DFE4FD083DF91CF9135
:1002A000089582E08093C80088E98093C90086E0C1
:1002B0008093CA00109256031092570380E18093F6
:1002C000CC0008959091C80095FFFCCF8093CE009C
:1002D0000895209156039091570381E0291301C09E
:1002E00080E0089585E0EEDF86E668DFEBDF85E6F7
:1002F00065DFE8DF84E662DFE5DF81E65FDFE2DF1E
:1003000080E65CDFDFCFA7E5B3E0EC91F0E0EA5AEE
:10031000FD4F80819C919F5F9C930895809156032F
:100320008F5F209157039091CE00821741F0E091AA
:100330005603F0E0EA5AFD4F9083809356030895E8
:100340001F920F920FB60F9211242F933F934F934A
:100350005F936F937F938F939F93AF93BF93EF932D
:10036000FF93DCDFFF91EF91BF91AF919F918F9150
:100370007F916F915F914F913F912F910F900FBEA1
:100380000F901F901895262F30E0803339F430936A
:1003900089002093880060932C01089530938B008E
:1003A00020938A0060932D01089510928900109285
:1003B000880010928B0010928A00ECE2F1E010822B
:1003C0001182089581EA8093800089E08093810002
:1003D00084B1806684B9E9CF1F920F920FB60F9255
:1003E00011248F939F93AF93BF93CF93DF93EF939A
:1003F000FF9380911401811124C0809113018531F4
:1004000018F08093200102C01092200190911201F7
:10041000911102C08F5F01C08150809313018091C0
:1004200013018E3F20F081E08093120104C08330DD
:1004300010F410921201A6E1B1E0E1E2F1E0EF0167
:1004400006C08130C1F78FEF80932001F4CF8D91EA
:10045000899381E0A132B807D1F7809121018823E7
:1004600011F0769A04C076988FEF809321018091E5
:100470002201882311F05C9A04C05C988FEF80936E
:10048000220180912301882311F05E9A04C05E98B6
:100490008FEF8093230180912401882311F0469AE5
:1004A00004C046988FEF8093240180912501882312
:1004B00011F05F9A04C05F988FEF809325018091BF
:1004C0002601882311F02F9A04C02F988FEF809374
:1004D000260180912701882311F0589A04C058986A
:1004E0008FEF8093270180912801882311F0599A7A
:1004F00004C059988FEF80932801809129018823A7
:1005000011F0729A04C072988FEF80932901809144
:100510002A01882311F08F9A04C08F988FEF80935F
:100520002A0180912B01882311F0479A04C0479833
:100530008FEF80932B01809115019191981708F40A
:10054000892F91E0EC32F907C1F78093150187BD3F
:100550009091100180911101890F80931001FF91FA
:10056000EF91DF91CF91BF91AF919F918F910F90BC
:100570000FBE0F901F9018951F920F920FB60F92FB
:1005800011248F939F93EF93FF93809115018F3FD9
:1005900009F47AC090912101981304C076988FEFE6
:1005A000809321019091220180911501981304C03C
:1005B0005C988FEF80932201909123018091150127
:1005C000981304C05E988FEF8093230190912401CB
:1005D00080911501981304C046988FEF80932401F1
:1005E0009091250180911501981304C05F988FEFB9
:1005F000809325019091260180911501981304C0E4
:100600002F988FEF809326019091270180911501FB
:10061000981304C058988FEF809327019091280178
:1006200080911501981304C059988FEF8093280189
:100630009091290180911501981304C072988FEF51
:100640008093290190912A0180911501981304C08B
:100650008F988FEF80932A0190912B018091150143
:10066000981304C047988FEF80932B01E1E2F1E0EB
:100670008FEF9191981708F4892F91E0EC32F907E8
:10068000C1F78093150187BDFF91EF919F918F91E5
:100690000F900FBE0F901F90189514BC84E085BD7D
:1006A00083E080936E00279A87B1806C87B98AB106
:1006B000836D8AB98DB184648DB9879A0895813329
:1006C00039F46093190140931A0120931B01089596
:1006D0006093160140931701209318010895813308
:1006E00061F018F4803331F00895823349F0833398
:1006F00051F0089560931C01089560931D010895C1
:1007000060931E01089560931F010895E6E1F1E0F2
:10071000108211821282138214821582168217822D
:1007200010861186089584B7877F84BF0FB6F8942A
:10073000A8958091600088618093600010926000AD
:100740000FBE90E080E80FB6F8948093610090931C
:1007500061000FBE209A289A559A5D9A3F9A479851
:1007600021DD9BDF2FDE3EDD9CDDB8C6CF93DF931E
:10077000CDB7DEB76A970FB6F894DEBF0FBECDBF18
:10078000D2DF78942FEF84E39CE0215080409040AA
:10079000E1F700C0000010E0A0E24A2EA1EA5A2EC4
:1007A000A7E06A2E712CC12CD12C7601A12CB12C82
:1007B000FE013496FE8BED8BCE010596988F8F8BC4
:1007C0001E0196E0290E311C7096FA8FE98F80E0A9
:1007D00091E00E94FB0D0E949A0C809110018F31D4
:1007E00018F0109210017EDDC414D504E604F7045D
:1007F00099F4FBEFCF16FFEFDF06EF06FF06B0F42C
:1008000007DD84DF37DDD1DD109214012FEFC21A2E
:10081000D20AE20AF20A0AC0C414D504E604F704B4
:1008200028F48FEFC81AD80AE80AF80A52DD88239C
:1008300009F471C268DD823509F490C1D0F48C34BA
:1008400009F4C2C048F4813461F1873409F09BC1D6
:1008500081E08093140192C18D3409F4DBC08F34A0
:1008600009F091C181E080931401FE0132964F019D
:100870007FC0883509F46EC168F4833509F411C16D
:10088000863509F080C181E080931401FE01329623
:100890004F01E8C0833709F42AC18A3709F41FC21F
:1008A00072C181E080931401FE0132964F0110E085
:1008B00010DD81110BC01A3F09F465C18FE39FE180
:1008C0000197F1F700C000001F5FF2CF1A3F09F453
:1008D0005AC119DDF40181934F01898D9A8DE81772
:1008E000F90729F72C8130E04B8150E06A8170E0F4
:1008F00080E3E5DE2F8130E04E8150E06D8170E0D5
:1009000081E3DDDE688570E080E3E9DE698570E023
:1009100081E3E5DE6A8570E082E3E1DE6B8570E00D
:1009200083E3DDDE6C8580E0A7DC6D8581E0A4DCFF
:100930006E8582E0A1DC6F8583E09EDC688980E3C0
:1009400022DD698981E31FDD4A8947FD03C0440F29
:1009500060E002C0440F61E080E05CDC4B8947FD51
:1009600003C0440F60E002C0440F61E081E078C042
:1009700010E0AFDC81110BC01A3F09F404C18FE312
:100980009FE10197F1F700C000001F5FF2CF1A3F0F
:1009900009F4F9C0B8DCF40181934F01E215F305C5
:1009A00039F72D8130E04C8150E06B8170E08A8115
:1009B00086DEF0E44F2EFBE45F2EFCE46F2E712CFC
:1009C000C12CD12C760103CF81E080931401CE019C
:1009D00002964C0110E07DDC81110BC01A3F09F436
:1009E000D2C0EFE3FFE13197F1F700C000001F5FD5
:1009F000F2CF1A3F09F4C7C086DCF40181934F019E
:100A00008D899E89E817F90729F76B8170E08A8143
:100A100066DECFCF81E080931401FE0132964F0154
:100A200010E057DC81110BC01A3F09F4ACC08FE312
:100A30009FE10197F1F700C000001F5FF2CF1A3F5E
:100A400009F4A1C060DCF40181934F018F89988D76
:100A5000E817F90729F76B8160538A814C8180532D
:100A6000D9DBA7CF10E035DC81110BC01A3F09F4A8
:100A70008AC08FE39FE10197F1F700C000001F5F7C
:100A8000F2CF1A3F09F47FC03EDCF40181934F019D
:100A90008D899E89E817F90729F76B818A8173DCB4
:100AA00088CF81E080931401FE0132964F0110E05F
:100AB00010DC81110BC01A3F09F465C08FE39FE180
:100AC0000197F1F700C000001F5FF2CF1A3F09F451
:100AD0005AC019DCF40181934F018D899E89E81772
:100AE000F90729F78A816B818053C6DB62CF81E0E9
:100AF00080931401EEDB81110BC01A3F08F043C054
:100B0000EFE3FFE13197F1F700C000001F5FF2CF84
:100B10001A3F08F038C0F7DB8A83803321F481E084
:100B2000D1DB86E693C0813321F481E0CBDB85E61F
:100B30008DC0823321F481E0C5DB84E687C0833336
:100B400021F481E0BFDB81E681C0843309F031CF3D
:100B500081E07AC081E08093140102C010921401F8
:100B600057DBD4DD87DB21DC89C01A3F60F48FE3DB
:100B70009FE10197F1F700C000001F5FAADB882307
:100B8000A1F31A3F40F0E0E44E2EEBE45E2EECE4DD
:100B90006E2E712C1CCEB7DB8A83803381F486E005
:100BA00091DB76E1E72E71E0F72EF70181917F016D
:100BB00089DBFCE1EF16F1E0FF06B9F7FACE8133ED
:100BC000E9F488E07FDB6CE1E62E61E0F62EF701C8
:100BD00081917F0177DBF0E2EF16F1E0FF06B9F7D4
:100BE0005EE2E52E51E0F52EF70181917F016ADB8F
:100BF000F2E3EF16F1E0FF06B9F7DBCE8233A9F49A
:100C000086E060DB44E3E42E41E0F42EF7018191BD
:100C10007F0158DBF8E3EF16F1E0FF06B9F78091AA
:100C20002C0150DB80912D0158C0833389F485E07D
:100C300049DB86E6C3DA46DB85E6C0DA43DB84E6D9
:100C4000BDDA40DB81E6BADA3DDB80E6B7DA45C0E3
:100C5000843361F485E036DB83E034DB80E032DB33
:100C600082E030DB83E02EDB81E637C0853321F480
:100C700081E0809311019DCE863329F410921101F9
:100C80001092100196CE873309F093CE82E11ADBE1
:100C900036E1E32E31E0F32EF70181917F0112DB83
:100CA000F0E2EF16F1E0FF06B9F72EE2E22E21E0C6
:100CB000F22EF70181917F0105DBF2E3EF16F1E0FF
:100CC000FF06B9F780912C01FDDA80912D01FADA47
:100CD00080913201F7DA80913301F4DA6ACE81E053
:100CE00080931401EFDA8A2DEDDA2FEFA21AB20AFF
:100CF0008FEFA816B10409F00CF45BCE90E4492EF6
:100D00009BE4592E9CE4692E712CC12CD12C7601C8
:100D1000A12CB12C5CCD80914302823509F461C0D5
:100D2000C8F48C3461F120F4873409F45FC04FCDEE
:100D30008D3461F18F3409F04ACD2091470230E0C3
:100D40004091460250E06091450270E0809144027B
:100D5000B6DCC6C0883509F444C058F4833501F1C7
:100D6000863509F034CD60914502809144020BDB59
:100D7000B7C08337E1F08A3709F4A6C028CD609167
:100D8000450270E080914402AADCAAC0609145024D
:100D90006053809144024091460280533BDAA0C0E8
:100DA0008091440260914502805366DA99C0809137
:100DB0004402803311F486E607C0813311F485E6DE
:100DC00003C0823329F484E6F9D980934E0288C0A7
:100DD000833311F481E6F8CF843309F081C080E6D3
:100DE000F3CF16DA93DC46DAE0DA7AC08091440277
:100DF000803359F4E6E1F1E0AEE4B2E081918D9305
:100E000091E0ED31F907D1F76BC08133E9F48091BE
:100E10001D0180934E0280911E0180934F028091AC
:100E20001F018093500280912E0180935102809186
:100E30002F01809352028091300180935302809160
:100E40003101809354024CC08233C9F48091340143
:100E500080934E028091350180934F02809136013C
:100E600080935002809137018093510280912C0130
:100E70008093520280912D018093530231C08333BD
:100E800099F486E69BD980934E0285E697D98093A4
:100E90004F0284E693D98093500281E68FD98093E4
:100EA000510280E68BD90DC08433D1F483E0809366
:100EB0004E0210924F0292E09093500280935102A2
:100EC00081E6809352020CC0A0924E02EFEFAE1A60
:100ED000BE0AFFEFAF16B10419F014F0A12CB12C2B
:100EE00080914302823519F41092140103C081E00D
:100EF000809314011092430280914A02809355021C
:100F000080E2482E81EA582E87E0682E712C58CD59
:100F10000895109214017CD9F9DBACD946CA80E05F
:100F200091E056D6E2EEF0E08081846080830895FF
:100F300080E091E019C580910E0190910F0100971A
:100F400029F0019790930F0180930E0108950F935C
:100F50001F9390914B02992311F0FB0190834091D4
:100F60004C0250914D026EE472E0C90119D7809194
:100F70004C0290914D02F8019183808380E01F9193
:100F80000F9108950F931F93A801A0E4B2E06C9312
:100F9000EBE4F2E0608312961C930E931197128398
:100FA0000183B90183E492E01F910F91F9C6292FC3
:100FB000332723303105E1F05CF42130310599F01D
:100FC0002230310579F582E290E026E131E02EC051
:100FD0002132310511F12232310521F580E290E014
:100FE0002AE431E023C082E190E028E331E01EC032
:100FF00099278130910541F08230910541F0892B8C
:1010000089F4E2E1F1E005C0E2EEF0E002C0E0ECDC
:10101000F0E0849190E09F0109C089E090E028E22F
:1010200031E004C080E090E020E030E0FA0131835C
:1010300020830895CF92DF92EF92FF920F931F9338
:10104000CF93DF93EC018B017A01D6D1811133C0AC
:10105000E114F10439F0F70180819181081B190B2B
:10106000C80FD91FC12CD12C0115110519F1809180
:10107000E80085FD16C08091E8008E778093E80037
:1010800059D4E114F10449F0F70180819181C80E2F
:10109000D91ED182C08285E00EC0AED1882321F353
:1010A0000AC089918093F10001501109FFEFCF1A16
:1010B000DF0ADACF80E0DF91CF911F910F91FF908F
:1010C000EF90DF90CF9008952091630330916403F7
:1010D0002617370748F06115710539F42091E800AB
:1010E0002E772093E80001C0B90140E06115710539
:1010F000A9F120915C03222309F441C0253009F4B1
:1011000040C02091E80023FD38C02091E80022FD76
:101110002EC02091E80020FFE9CF4091F3002091FC
:10112000F20030E0342BFC01CF016115710559F05C
:101130002830310540F481918093F10061507109AC
:101140002F5F3F4FF1CF41E02830310509F040E0FB
:101150002091E8002E772093E800C8CF4111C9CF35
:1011600006C080915C03882351F0853051F0809156
:10117000E80082FFF6CF80E0089581E0089582E0E4
:10118000089583E008956115710529F42091E80020
:101190002B772093E800FC016115710541F18091E6
:1011A0005C03882361F1853061F18091E80083FD63
:1011B00024C08091E80082FFEFCF2091F30080915E
:1011C000F20090E0922B892B31F08091F100819315
:1011D0006150710991F78091E8008B778093E80066
:1011E000DBCF80915C03882351F0853051F08091F2
:1011F000E80080FFF6CF80E0089581E0089582E066
:10120000089583E0089520916303309164032617C5
:10121000370748F06115710539F42091E8002E7701
:101220002093E80001C0B901FC0120E061157105BF
:1012300091F180915C03882309F43EC0853009F464
:101240003DC08091E80083FD35C08091E80082FDBB
:101250002BC08091E80080FFE9CF2091F3008091BE
:10126000F20090E0922B6115710559F088309105DC
:1012700040F424912093F100319661507109019658
:10128000F2CF21E0089709F020E08091E8008E7706
:101290008093E800CBCF2111CCCF06C080915C03B6
:1012A000882351F0853051F08091E80082FFF6CF1D
:1012B00080E0089581E0089582E0089583E0089534
:1012C000982F973058F59093E900981739F070915E
:1012D000EC002091ED005091F00003C0242F762FF8
:1012E00050E021FF19C03091EB003E7F3093EB00BE
:1012F0003091ED003D7F3093ED003091EB00316097
:101300003093EB007093EC002093ED005093F000CD
:101310002091EE0027FF07C09F5FD3CF8F7080938F
:10132000E90081E0089580E00895EF92FF920F9325
:101330001F93CF93DF93E62EEC018C010C5F1F4FC0
:10134000F12CFE1491F15881552351F1F8012081BF
:1013500069817A8131979081852F8F70873010F065
:1013600080E024C0223010F442E001C046E0E8E012
:10137000F0E020E0E617F70720F42F5FEE0FFF1FE5
:10138000F9CF2295207F422BF0E49F9F90011124FA
:10139000551F5527551F652F622B92DF882301F3B8
:1013A000F39425960B5F1F4FCCCF81E0DF91CF9157
:1013B0001F910F91FF90EF90089580915D0387FF3B
:1013C00011C08091E80082FD05C080915C0381110D
:1013D000F8CF11C08091E8008B770BC080915C033F
:1013E000882349F08091E80080FFF8CF8091E800E1
:1013F0008E778093E80008952091E4003091E50015
:1014000095E64091EC00842F817040FF22C08091CE
:10141000E80080FD1CC080915C03882391F085303A
:1014200091F08091EB0085FD10C04091E400509157
:10143000E5004217530729F39A01915011F784E010
:10144000089582E0089583E0089581E0089580E0A2
:1014500008954091E80042FFDECF08950F931F9357
:10146000CF93DF934BD052D0C8EDD0E088818F77F7
:10147000888388818068888388818F7D888319BC70
:1014800010925C031092580310925A031092590361
:1014900000EE10E0F80180818B7F8083888181607D
:1014A000888342E060E080E00BDFE1EEF0E08081E5
:1014B0008E7F8083E2EEF0E0808181608083808196
:1014C00088608083F80180818E7F8083888180613D
:1014D0008883DF91CF911F910F910895E8EDF0E09F
:1014E00080818F7E8083E7EDF0E080818160808362
:1014F00084E082BF81E080935B03B0CFE8EDF0E051
:1015000080818E7F80831092E20008951092DA002D
:101510001092E10008951F920F920FB60F921124BE
:101520002F933F934F935F936F937F938F939F93EB
:10153000AF93BF93EF93FF938091E10082FF0AC0C6
:101540008091E20082FF06C08091E1008B7F809352
:10155000E100F1DC8091DA0080FF1DC08091D800AD
:1015600080FF19C08091DA008E7F8093DA0080912D
:10157000D90080FF0CC080E189BD82E189BD09B43A
:1015800000FEFDCF81E080935C03C2DC04C019BC87
:1015900010925C03BEDC8091E10080FF18C0809156
:1015A000E20080FF14C08091E2008E7F8093E20011
:1015B0008091E20080618093E2008091D800806297
:1015C0008093D80019BC85E080935C03B2D18091F0
:1015D000E10084FF2FC08091E20084FF2BC080E1F6
:1015E00089BD82E189BD09B400FEFDCF8091D8009C
:1015F0008F7D8093D8008091E1008F7E8093E10001
:101600008091E2008F7E8093E2008091E200816011
:101610008093E20080915803882311F084E007C092
:101620008091E30087FD02C081E001C083E08093E8
:101630005C037FD18091E10083FF22C08091E200B2
:1016400083FF1EC08091E100877F8093E10082E0EC
:1016500080935C03109258038091E1008E7F809309
:10166000E1008091E2008E7F8093E2008091E200B1
:1016700080618093E20042E060E080E021DE59D1A9
:10168000FF91EF91BF91AF919F918F917F916F915A
:101690005F914F913F912F910F900FBE0F901F9030
:1016A00018951F93CF93DF93CDB7DEB7AA970FB6E8
:1016B000F894DEBF0FBECDBFEDE5F3E088E08E0FFE
:1016C0009091F10091938E13FBCF32DC8091E80072
:1016D00083FF17C180915D0390915E03492F50E015
:1016E0004A30510508F00DC1FA01EA5AFF4F45C3CF
:1016F000803881F0823809F004C1809161038F70D5
:101700008093E9008091EB0085FB882780F9109297
:10171000E90006C08091590390915A0391118260AB
:101720009091E800977F9093E8008093F1001092E9
:10173000F100C4C0282F2D7F09F0E3C0882319F0E1
:10174000823061F0DEC080915F03813009F0D9C042
:10175000933009F080E080935A032BC080915F039F
:10176000811127C0809161038F7009F4CAC08093F2
:10177000E9002091EB0020FF1CC0933021F4809100
:10178000EB00806214C09091EB0090619093EB00AD
:1017900021E030E0A90102C0440F551F8A95E2F70D
:1017A0004093EA001092EA008091EB0088608093F9
:1017B000EB001092E9008091E800877F82C08111E0
:1017C000A0C010915F031F778091E3008078812B88
:1017D0008093E3008091E800877F8093E800EDDD4F
:1017E0008091E80080FFFCCF8091E30080688093C7
:1017F000E300111102C082E001C083E080935C032A
:1018000080C08058823008F07CC080915F03909146
:1018100060038C3D53E0950771F583E08A838AE28B
:1018200089834FB7F894DE01139620E03EE051E241
:10183000E32FF0E050935700E49120FF03C0E295BE
:10184000EF703F5FEF708E2F90E0EA3010F0C79698
:1018500001C0C0968D939D932F5F243149F74FBFF0
:101860008091E800877F8093E8006AE270E0CE0113
:1018700001962ADC12C0AE014F5F5F4F6091610399
:1018800096DBBC01892B09F43CC09091E800977F5E
:101890009093E80089819A81B6DC8091E8008B778B
:1018A0008093E8002EC0803861F58091E800877F42
:1018B0008093E800809158038093F1008091E800C4
:1018C0008E778093E80079DD1CC081111AC0909159
:1018D0005F039230B0F48091E800877F8093E80046
:1018E000909358036ADD80915803811106C080915E
:1018F000E30087FD02C081E001C084E080935C03C7
:101900000EDB8091E80083FF0AC08091E800877FAA
:101910008093E8008091EB0080628093EB00AA96B0
:101920000FB6F894DEBF0FBECDBFDF91CF911F91F0
:1019300008950895CF9380915C03882399F0C09116
:10194000E900CF709091EC00892F817090FD80E8C4
:10195000C82B1092E9008091E80083FDA2DECF70D1
:10196000C093E900CF9108956F927F928F929F92DA
:10197000AF92BF92CF92DF92EF92FF920F931F939D
:10198000CF93DF9300D01F92CDB7DEB77C01CDB6E9
:10199000DEB68091E80083FF04C1F701808190E00A
:1019A00020916103309162032817390709F0F9C0CB
:1019B00080915E03833009F49BC030F4813071F074
:1019C000823009F4D2C0EDC08A3009F4B6C08B3041
:1019D00009F49FC0893009F0E4C04DC080915D03D7
:1019E000813A09F0DEC08DB69EB61A8219828091C6
:1019F0005F03109160038B83F7018085482F50E0CF
:101A00008DB79EB7841B950B0FB6F8949EBF0FBE83
:101A10008DBFEDB7FEB731965F0160E070E0CF019A
:101A2000C8D14FEF410F8E010F5F1F4F9501BE01CF
:101A30006D5F7F4FC7018BDAF70186819781009731
:101A400021F0408550E0B501ABD11092E9008091C2
:101A5000E800877F8093E80069817A81C50134DBE3
:101A60008091E8008B778093E8000FB6F8949EBED3
:101A70000FBE8DBE96C080915D03813209F091C08A
:101A8000ADB6BEB6009163031091640370905F031E
:101A9000609060038DB79EB7801B910B0FB6F894D2
:101AA0009EBF0FBE8DBFEDB7FEB731964F0180913F
:101AB000E800877F8093E800B801CF0164DB809164
:101AC000E8008E778093E80021E0711001C020E0EB
:101AD00030E0021B130B280D391D4FEF460D672D0B
:101AE000C70150DA0FB6F894BEBE0FBEADBE59C0E6
:101AF00080915D03813A09F054C08091E800877FAE
:101B00008093E8008091E80080FFFCCFF701818599
:101B100040C080915D03813209F043C08091E800AC
:101B2000877F8093E80049DC90915F0381E0911109
:101B300001C080E0F701818734C080915D0381326C
:101B400081F58091E800877F8093E80036DC809102
:101B50005F0390916003882736E0969587953A95C4
:101B6000E1F7F701958784871CC080915D03813A76
:101B7000C1F48091E800877F8093E8008091E800BD
:101B800080FFFCCFF701848595859695879596957E
:101B900087958093F1008091E8008E778093E8002C
:101BA0000CDC0FB6F894DEBE0FBECDBE0F900F90CA
:101BB0000F90DF91CF911F910F91FF90EF90DF90E9
:101BC000CF90BF90AF909F908F907F906F9008952F
:101BD000FC01399627E0DF011D922A95E9F721E003
:101BE000FC01218724EF31E03587248723E024831B
:101BF00061E001969ACB4F925F926F927F928F92A3
:101C00009F92AF92BF92CF92DF92EF92FF920F938B
:101C10001F93CF93DF9300D01F92CDB7DEB77C0127
:101C2000ADB6BEB680915C03843009F08DC0809162
:101C3000E4009091E500F7012285338528173907E4
:101C400009F482C081818F708093E9008091E8005F
:101C500085FF7AC08DB69EB6408550E08DB79EB7A1
:101C6000841B950B0FB6F8949EBF0FBE8DBFEDB7CA
:101C7000FEB731966F011B821A82198260E070E014
:101C8000CF0197D08E010F5F1F4F960140E0BE013C
:101C90006D5F7F4FC7015BD9482EF701848595851D
:101CA000892B51F091E080E026853785232B09F0C0
:101CB00090E0092F182F02C000E010E0F7016680C5
:101CC00077806114710489F049815A81B301C6019A
:101CD0005AD055245394892B09F4512CF70140858F
:101CE00050E0B601C3015CD001C0512C89819A81BA
:101CF000892BF1F0411004C0511002C0012BC1F03A
:101D0000F701848595859787868781818F70809379
:101D1000E9008B8181118093F10069817A8140E033
:101D200050E0C60187D98091E8008E778093E80063
:101D30008091E4009091E500F701938782870FB6C8
:101D4000F8949EBE0FBE8DBE0FB6F894BEBE0FBEF9
:101D5000ADBE0F900F900F90DF91CF911F910F911B
:101D6000FF90EF90DF90CF90BF90AF909F908F90BB
:101D70007F906F905F904F900895EE0FFF1F05903A
:101D8000F491E02D0994FB01DC0104C08D910190D8
:101D9000801921F441505040C8F7881B990B0895D1
:101DA000FB01DC0102C001900D9241505040D8F778
:101DB0000895DC0101C06D9341505040E0F7089553
:041DC000F894FFCFC5
:101DC4000081080000013801080000000000000044
:00000001FF
